{"abi":[{"type":"constructor","inputs":[{"name":"_updater","type":"address","internalType":"address"}],"stateMutability":"nonpayable"},{"type":"function","name":"getScore","inputs":[{"name":"subject","type":"bytes32","internalType":"bytes32"}],"outputs":[{"name":"","type":"uint256","internalType":"uint256"}],"stateMutability":"view"},{"type":"function","name":"getSubject","inputs":[{"name":"subject","type":"bytes32","internalType":"bytes32"}],"outputs":[{"name":"label","type":"string","internalType":"string"},{"name":"score","type":"uint256","internalType":"uint256"}],"stateMutability":"view"},{"type":"function","name":"labels","inputs":[{"name":"","type":"bytes32","internalType":"bytes32"}],"outputs":[{"name":"","type":"string","internalType":"string"}],"stateMutability":"view"},{"type":"function","name":"scores","inputs":[{"name":"","type":"bytes32","internalType":"bytes32"}],"outputs":[{"name":"","type":"uint256","internalType":"uint256"}],"stateMutability":"view"},{"type":"function","name":"updateScore","inputs":[{"name":"subject","type":"bytes32","internalType":"bytes32"},{"name":"score","type":"uint256","internalType":"uint256"},{"name":"label","type":"string","internalType":"string"}],"outputs":[],"stateMutability":"nonpayable"},{"type":"function","name":"updateScores","inputs":[{"name":"subjects","type":"bytes32[]","internalType":"bytes32[]"},{"name":"newScores","type":"uint256[]","internalType":"uint256[]"},{"name":"newLabels","type":"string[]","internalType":"string[]"}],"outputs":[],"stateMutability":"nonpayable"},{"type":"function","name":"updater","inputs":[],"outputs":[{"name":"","type":"address","internalType":"address"}],"stateMutability":"view"},{"type":"event","name":"BatchScoreUpdated","inputs":[{"name":"count","type":"uint256","indexed":false,"internalType":"uint256"},{"name":"timestamp","type":"uint256","indexed":false,"internalType":"uint256"}],"anonymous":false},{"type":"event","name":"LabelUpdated","inputs":[{"name":"subject","type":"bytes32","indexed":true,"internalType":"bytes32"},{"name":"label","type":"string","indexed":false,"internalType":"string"}],"anonymous":false},{"type":"event","name":"ScoreUpdated","inputs":[{"name":"subject","type":"bytes32","indexed":true,"internalType":"bytes32"},{"name":"score","type":"uint256","indexed":false,"internalType":"uint256"},{"name":"timestamp","type":"uint256","indexed":false,"internalType":"uint256"}],"anonymous":false}],"bytecode":{"object":"0x608060405234801562000010575f80fd5b50604051620013d6380380620013d6833981810160405281019062000036919062000152565b5f73ffffffffffffffffffffffffffffffffffffffff168173ffffffffffffffffffffffffffffffffffffffff1603620000a7576040517f08c379a00000000000000000000000000000000000000000000000000000000081526004016200009e9062000206565b60405180910390fd5b805f806101000a81548173ffffffffffffffffffffffffffffffffffffffff021916908373ffffffffffffffffffffffffffffffffffffffff1602179055505062000226565b5f80fd5b5f73ffffffffffffffffffffffffffffffffffffffff82169050919050565b5f6200011c82620000f1565b9050919050565b6200012e8162000110565b811462000139575f80fd5b50565b5f815190506200014c8162000123565b92915050565b5f602082840312156200016a5762000169620000ed565b5b5f62000179848285016200013c565b91505092915050565b5f82825260208201905092915050565b7f497070616e41694f7261636c653a2075706461746572206973207a65726f20615f8201527f6464726573730000000000000000000000000000000000000000000000000000602082015250565b5f620001ee60268362000182565b9150620001fb8262000192565b604082019050919050565b5f6020820190508181035f8301526200021f81620001e0565b9050919050565b6111a280620002345f395ff3fe608060405234801561000f575f80fd5b506004361061007b575f3560e01c80638a753f16116100595780638a753f16146100fb578063c67716c71461012b578063dab8c3f71461015c578063df034cd0146101785761007b565b806336ed596e1461007f5780635b36ac1c1461009b5780637ba53285146100cb575b5f80fd5b6100996004803603810190610094919061081f565b610196565b005b6100b560048036038101906100b09190610902565b610428565b6040516100c29190610945565b60405180910390f35b6100e560048036038101906100e09190610902565b61043d565b6040516100f29190610945565b60405180910390f35b61011560048036038101906101109190610902565b610457565b60405161012291906109e8565b60405180910390f35b61014560048036038101906101409190610902565b6104f2565b604051610153929190610a08565b60405180910390f35b61017660048036038101906101719190610ab5565b6105ab565b005b6101806106e9565b60405161018d9190610b65565b60405180910390f35b5f8054906101000a900473ffffffffffffffffffffffffffffffffffffffff1673ffffffffffffffffffffffffffffffffffffffff163373ffffffffffffffffffffffffffffffffffffffff1614610223576040517f08c379a000000000000000000000000000000000000000000000000000000000815260040161021a90610bc8565b60405180910390fd5b5f86869050905084849050811461026f576040517f08c379a000000000000000000000000000000000000000000000000000000000815260040161026690610c30565b60405180910390fd5b8282905081146102b4576040517f08c379a00000000000000000000000000000000000000000000000000000000081526004016102ab90610cbe565b60405180910390fd5b5f5b818110156103e5575f8888838181106102d2576102d1610cdc565b5b9050602002013590505f8787848181106102ef576102ee610cdc565b5b905060200201359050365f87878681811061030d5761030c610cdc565b5b905060200281019061031f9190610d15565b91509150818160025f8781526020019081526020015f209182610343929190610fa8565b508260015f8681526020019081526020015f2081905550837f33c736cd249ef2b9cb78332553dbe6945dc8ffaf98dea331b5b5d1ca07b9cecc838360405161038c9291906110af565b60405180910390a2837f472b3d132ca0291b211798f7f566c888183f4fe746fa3170f08ec2213293e2a484426040516103c69291906110d1565b60405180910390a25050505080806103dd90611125565b9150506102b6565b507f40e68cb8743fe024cb06005a096f3f16a5966f92d8fd11f59272a4febdf9d24481426040516104179291906110d1565b60405180910390a150505050505050565b6001602052805f5260405f205f915090505481565b5f60015f8381526020019081526020015f20549050919050565b6002602052805f5260405f205f91509050805461047390610ddb565b80601f016020809104026020016040519081016040528092919081815260200182805461049f90610ddb565b80156104ea5780601f106104c1576101008083540402835291602001916104ea565b820191905f5260205f20905b8154815290600101906020018083116104cd57829003601f168201915b505050505081565b60605f60025f8481526020019081526020015f2060015f8581526020019081526020015f205481805461052490610ddb565b80601f016020809104026020016040519081016040528092919081815260200182805461055090610ddb565b801561059b5780601f106105725761010080835404028352916020019161059b565b820191905f5260205f20905b81548152906001019060200180831161057e57829003601f168201915b5050505050915091509150915091565b5f8054906101000a900473ffffffffffffffffffffffffffffffffffffffff1673ffffffffffffffffffffffffffffffffffffffff163373ffffffffffffffffffffffffffffffffffffffff1614610638576040517f08c379a000000000000000000000000000000000000000000000000000000000815260040161062f90610bc8565b60405180910390fd5b818160025f8781526020019081526020015f209182610658929190610fa8565b508260015f8681526020019081526020015f2081905550837f33c736cd249ef2b9cb78332553dbe6945dc8ffaf98dea331b5b5d1ca07b9cecc83836040516106a19291906110af565b60405180910390a2837f472b3d132ca0291b211798f7f566c888183f4fe746fa3170f08ec2213293e2a484426040516106db9291906110d1565b60405180910390a250505050565b5f8054906101000a900473ffffffffffffffffffffffffffffffffffffffff1681565b5f80fd5b5f80fd5b5f80fd5b5f80fd5b5f80fd5b5f8083601f84011261073557610734610714565b5b8235905067ffffffffffffffff81111561075257610751610718565b5b60208301915083602082028301111561076e5761076d61071c565b5b9250929050565b5f8083601f84011261078a57610789610714565b5b8235905067ffffffffffffffff8111156107a7576107a6610718565b5b6020830191508360208202830111156107c3576107c261071c565b5b9250929050565b5f8083601f8401126107df576107de610714565b5b8235905067ffffffffffffffff8111156107fc576107fb610718565b5b6020830191508360208202830111156108185761081761071c565b5b9250929050565b5f805f805f80606087890312156108395761083861070c565b5b5f87013567ffffffffffffffff81111561085657610855610710565b5b61086289828a01610720565b9650965050602087013567ffffffffffffffff81111561088557610884610710565b5b61089189828a01610775565b9450945050604087013567ffffffffffffffff8111156108b4576108b3610710565b5b6108c089828a016107ca565b92509250509295509295509295565b5f819050919050565b6108e1816108cf565b81146108eb575f80fd5b50565b5f813590506108fc816108d8565b92915050565b5f602082840312156109175761091661070c565b5b5f610924848285016108ee565b91505092915050565b5f819050919050565b61093f8161092d565b82525050565b5f6020820190506109585f830184610936565b92915050565b5f81519050919050565b5f82825260208201905092915050565b5f5b8381101561099557808201518184015260208101905061097a565b5f8484015250505050565b5f601f19601f8301169050919050565b5f6109ba8261095e565b6109c48185610968565b93506109d4818560208601610978565b6109dd816109a0565b840191505092915050565b5f6020820190508181035f830152610a0081846109b0565b905092915050565b5f6040820190508181035f830152610a2081856109b0565b9050610a2f6020830184610936565b9392505050565b610a3f8161092d565b8114610a49575f80fd5b50565b5f81359050610a5a81610a36565b92915050565b5f8083601f840112610a7557610a74610714565b5b8235905067ffffffffffffffff811115610a9257610a91610718565b5b602083019150836001820283011115610aae57610aad61071c565b5b9250929050565b5f805f8060608587031215610acd57610acc61070c565b5b5f610ada878288016108ee565b9450506020610aeb87828801610a4c565b935050604085013567ffffffffffffffff811115610b0c57610b0b610710565b5b610b1887828801610a60565b925092505092959194509250565b5f73ffffffffffffffffffffffffffffffffffffffff82169050919050565b5f610b4f82610b26565b9050919050565b610b5f81610b45565b82525050565b5f602082019050610b785f830184610b56565b92915050565b7f497070616e41694f7261636c653a206e6f7420757064617465720000000000005f82015250565b5f610bb2601a83610968565b9150610bbd82610b7e565b602082019050919050565b5f6020820190508181035f830152610bdf81610ba6565b9050919050565b7f497070616e41694f7261636c653a206c656e677468206d69736d6174636800005f82015250565b5f610c1a601e83610968565b9150610c2582610be6565b602082019050919050565b5f6020820190508181035f830152610c4781610c0e565b9050919050565b7f497070616e41694f7261636c653a206c6162656c73206c656e677468206d69735f8201527f6d61746368000000000000000000000000000000000000000000000000000000602082015250565b5f610ca8602583610968565b9150610cb382610c4e565b604082019050919050565b5f6020820190508181035f830152610cd581610c9c565b9050919050565b7f4e487b71000000000000000000000000000000000000000000000000000000005f52603260045260245ffd5b5f80fd5b5f80fd5b5f80fd5b5f8083356001602003843603038112610d3157610d30610d09565b5b80840192508235915067ffffffffffffffff821115610d5357610d52610d0d565b5b602083019250600182023603831315610d6f57610d6e610d11565b5b509250929050565b5f82905092915050565b7f4e487b71000000000000000000000000000000000000000000000000000000005f52604160045260245ffd5b7f4e487b71000000000000000000000000000000000000000000000000000000005f52602260045260245ffd5b5f6002820490506001821680610df257607f821691505b602082108103610e0557610e04610dae565b5b50919050565b5f819050815f5260205f209050919050565b5f6020601f8301049050919050565b5f82821b905092915050565b5f60088302610e677fffffffffffffffffffffffffffffffffffffffffffffffffffffffffffffffff82610e2c565b610e718683610e2c565b95508019841693508086168417925050509392505050565b5f819050919050565b5f610eac610ea7610ea28461092d565b610e89565b61092d565b9050919050565b5f819050919050565b610ec583610e92565b610ed9610ed182610eb3565b848454610e38565b825550505050565b5f90565b610eed610ee1565b610ef8818484610ebc565b505050565b5b81811015610f1b57610f105f82610ee5565b600181019050610efe565b5050565b601f821115610f6057610f3181610e0b565b610f3a84610e1d565b81016020851015610f49578190505b610f5d610f5585610e1d565b830182610efd565b50505b505050565b5f82821c905092915050565b5f610f805f1984600802610f65565b1980831691505092915050565b5f610f988383610f71565b9150826002028217905092915050565b610fb28383610d77565b67ffffffffffffffff811115610fcb57610fca610d81565b5b610fd58254610ddb565b610fe0828285610f1f565b5f601f83116001811461100d575f8415610ffb578287013590505b6110058582610f8d565b86555061106c565b601f19841661101b86610e0b565b5f5b828110156110425784890135825560018201915060208501945060208101905061101d565b8683101561105f578489013561105b601f891682610f71565b8355505b6001600288020188555050505b50505050505050565b828183375f83830152505050565b5f61108e8385610968565b935061109b838584611075565b6110a4836109a0565b840190509392505050565b5f6020820190508181035f8301526110c8818486611083565b90509392505050565b5f6040820190506110e45f830185610936565b6110f16020830184610936565b9392505050565b7f4e487b71000000000000000000000000000000000000000000000000000000005f52601160045260245ffd5b5f61112f8261092d565b91507fffffffffffffffffffffffffffffffffffffffffffffffffffffffffffffffff8203611161576111606110f8565b5b60018201905091905056fea2646970667358221220607f0797997060e86959f9d703df200376103d98931e37978999293aeab7f67264736f6c63430008140033","linkReferences":{}},"methodIdentifiers":{"getScore(bytes32)":"7ba53285","getSubject(bytes32)":"c67716c7","labels(bytes32)":"8a753f16","scores(bytes32)":"5b36ac1c","updateScore(bytes32,uint256,string)":"dab8c3f7","updateScores(bytes32[],uint256[],string[])":"36ed596e","updater()":"df034cd0"},"id":2}