{"abi":[{"type":"constructor","inputs":[{"name":"_updater","type":"address","internalType":"address"}],"stateMutability":"nonpayable"},{"type":"function","name":"getScore","inputs":[{"name":"subject","type":"bytes32","internalType":"bytes32"}],"outputs":[{"name":"","type":"uint256","internalType":"uint256"}],"stateMutability":"view"},{"type":"function","name":"scores","inputs":[{"name":"","type":"bytes32","internalType":"bytes32"}],"outputs":[{"name":"","type":"uint256","internalType":"uint256"}],"stateMutability":"view"},{"type":"function","name":"updateScore","inputs":[{"name":"subject","type":"bytes32","internalType":"bytes32"},{"name":"score","type":"uint256","internalType":"uint256"}],"outputs":[],"stateMutability":"nonpayable"},{"type":"function","name":"updateScores","inputs":[{"name":"subjects","type":"bytes32[]","internalType":"bytes32[]"},{"name":"newScores","type":"uint256[]","internalType":"uint256[]"}],"outputs":[],"stateMutability":"nonpayable"},{"type":"function","name":"updater","inputs":[],"outputs":[{"name":"","type":"address","internalType":"address"}],"stateMutability":"view"},{"type":"event","name":"BatchScoreUpdated","inputs":[{"name":"count","type":"uint256","indexed":false,"internalType":"uint256"},{"name":"timestamp","type":"uint256","indexed":false,"internalType":"uint256"}],"anonymous":false},{"type":"event","name":"ScoreUpdated","inputs":[{"name":"subject","type":"bytes32","indexed":true,"internalType":"bytes32"},{"name":"score","type":"uint256","indexed":false,"internalType":"uint256"},{"name":"timestamp","type":"uint256","indexed":false,"internalType":"uint256"}],"anonymous":false}],"bytecode":{"object":"0x608060405234801561000f575f80fd5b50604051610a42380380610a4283398181016040528101906100319190610142565b5f73ffffffffffffffffffffffffffffffffffffffff168173ffffffffffffffffffffffffffffffffffffffff160361009f576040517f08c379a0000000000000000000000000000000000000000000000000000000008152600401610096906101ed565b60405180910390fd5b805f806101000a81548173ffffffffffffffffffffffffffffffffffffffff021916908373ffffffffffffffffffffffffffffffffffffffff1602179055505061020b565b5f80fd5b5f73ffffffffffffffffffffffffffffffffffffffff82169050919050565b5f610111826100e8565b9050919050565b61012181610107565b811461012b575f80fd5b50565b5f8151905061013c81610118565b92915050565b5f60208284031215610157576101566100e4565b5b5f6101648482850161012e565b91505092915050565b5f82825260208201905092915050565b7f497070616e41694f7261636c653a2075706461746572206973207a65726f20615f8201527f6464726573730000000000000000000000000000000000000000000000000000602082015250565b5f6101d760268361016d565b91506101e28261017d565b604082019050919050565b5f6020820190508181035f830152610204816101cb565b9050919050565b61082a806102185f395ff3fe608060405234801561000f575f80fd5b5060043610610055575f3560e01c80632515e1be146100595780635b36ac1c146100755780637ba53285146100a5578063df034cd0146100d5578063f61b51ee146100f3575b5f80fd5b610073600480360381019061006e919061047f565b61010f565b005b61008f600480360381019061008a9190610530565b61028e565b60405161009c9190610573565b60405180910390f35b6100bf60048036038101906100ba9190610530565b6102a3565b6040516100cc9190610573565b60405180910390f35b6100dd6102bd565b6040516100ea91906105cb565b60405180910390f35b61010d6004803603810190610108919061060e565b6102e0565b005b5f8054906101000a900473ffffffffffffffffffffffffffffffffffffffff1673ffffffffffffffffffffffffffffffffffffffff163373ffffffffffffffffffffffffffffffffffffffff161461019c576040517f08c379a0000000000000000000000000000000000000000000000000000000008152600401610193906106a6565b60405180910390fd5b5f8484905090508282905081146101e8576040517f08c379a00000000000000000000000000000000000000000000000000000000081526004016101df9061070e565b60405180910390fd5b5f5b8181101561024d578383828181106102055761020461072c565b5b9050602002013560015f8888858181106102225761022161072c565b5b9050602002013581526020019081526020015f2081905550808061024590610786565b9150506101ea565b507f40e68cb8743fe024cb06005a096f3f16a5966f92d8fd11f59272a4febdf9d244814260405161027f9291906107cd565b60405180910390a15050505050565b6001602052805f5260405f205f915090505481565b5f60015f8381526020019081526020015f20549050919050565b5f8054906101000a900473ffffffffffffffffffffffffffffffffffffffff1681565b5f8054906101000a900473ffffffffffffffffffffffffffffffffffffffff1673ffffffffffffffffffffffffffffffffffffffff163373ffffffffffffffffffffffffffffffffffffffff161461036d576040517f08c379a0000000000000000000000000000000000000000000000000000000008152600401610364906106a6565b60405180910390fd5b8060015f8481526020019081526020015f2081905550817f472b3d132ca0291b211798f7f566c888183f4fe746fa3170f08ec2213293e2a482426040516103b59291906107cd565b60405180910390a25050565b5f80fd5b5f80fd5b5f80fd5b5f80fd5b5f80fd5b5f8083601f8401126103ea576103e96103c9565b5b8235905067ffffffffffffffff811115610407576104066103cd565b5b602083019150836020820283011115610423576104226103d1565b5b9250929050565b5f8083601f84011261043f5761043e6103c9565b5b8235905067ffffffffffffffff81111561045c5761045b6103cd565b5b602083019150836020820283011115610478576104776103d1565b5b9250929050565b5f805f8060408587031215610497576104966103c1565b5b5f85013567ffffffffffffffff8111156104b4576104b36103c5565b5b6104c0878288016103d5565b9450945050602085013567ffffffffffffffff8111156104e3576104e26103c5565b5b6104ef8782880161042a565b925092505092959194509250565b5f819050919050565b61050f816104fd565b8114610519575f80fd5b50565b5f8135905061052a81610506565b92915050565b5f60208284031215610545576105446103c1565b5b5f6105528482850161051c565b91505092915050565b5f819050919050565b61056d8161055b565b82525050565b5f6020820190506105865f830184610564565b92915050565b5f73ffffffffffffffffffffffffffffffffffffffff82169050919050565b5f6105b58261058c565b9050919050565b6105c5816105ab565b82525050565b5f6020820190506105de5f8301846105bc565b92915050565b6105ed8161055b565b81146105f7575f80fd5b50565b5f81359050610608816105e4565b92915050565b5f8060408385031215610624576106236103c1565b5b5f6106318582860161051c565b9250506020610642858286016105fa565b9150509250929050565b5f82825260208201905092915050565b7f497070616e41694f7261636c653a206e6f7420757064617465720000000000005f82015250565b5f610690601a8361064c565b915061069b8261065c565b602082019050919050565b5f6020820190508181035f8301526106bd81610684565b9050919050565b7f497070616e41694f7261636c653a206c656e677468206d69736d6174636800005f82015250565b5f6106f8601e8361064c565b9150610703826106c4565b602082019050919050565b5f6020820190508181035f830152610725816106ec565b9050919050565b7f4e487b71000000000000000000000000000000000000000000000000000000005f52603260045260245ffd5b7f4e487b71000000000000000000000000000000000000000000000000000000005f52601160045260245ffd5b5f6107908261055b565b91507fffffffffffffffffffffffffffffffffffffffffffffffffffffffffffffffff82036107c2576107c1610759565b5b600182019050919050565b5f6040820190506107e05f830185610564565b6107ed6020830184610564565b939250505056fea26469706673582212201fdfdf464800bffe9fa1389771db127ddc5fc634ff46de2d883bb3b342e9fc3664736f6c63430008140033","linkReferences":{}},"methodIdentifiers":{"getScore(bytes32)":"7ba53285","scores(bytes32)":"5b36ac1c","updateScore(bytes32,uint256)":"f61b51ee","updateScores(bytes32[],uint256[])":"2515e1be","updater()":"df034cd0"},"id":2}